:020000040800F2
:10000000D0BD0120C1380008110A0008130A0008F9
:10001000250A0008290A00082D0A0008000000002F
:10002000000000000000000000000000310A00088D
:10003000330A000800000000533B0008653C00083C
:10004000DB380008DB380008DB380008DB38000844
:10005000DB380008DB380008DB380008DB38000834
:10006000DB380008DB380008DB380008DB38000824
:10007000DB380008DB380008DB380008DB38000814
:10008000DB380008DB380008DB380008DB38000804
:10009000DB380008DB380008DB380008A10E010857
:1000A000DB380008DB380008DB380008DB380008E4
:1000B00087ED0008DB380008DB380008DB38000873
:1000C000DB380008DB380008DB380008DB380008C4
:1000D000DB3800087B110008DB380008DB3800083B
:1000E00073EE0008DB380008DB3800081F0F01083A
:1000F000DB380008DB380008DB380008DB38000894
:10010000DB380008DB3800089DEA0008DB3800080F
:10011000DB3800087FEA0008CF0D01084B0E01080C
:10012000DB380008DB380008DB380008DB38000863
:10013000DB380008350A0008DB380008DB38000827
:10014000DB380008DB380008DB380008DB38000843
:10015000DB380008DB380008DB380008DB38000833
:10016000DB380008DB380008DB380008DB38000823
:10017000DB380008DB380008DB380008DB38000813
:10018000DB380008DFF80CD01FF038FE00480047CD
:1001900079020008D0BD0120424800686422B0FB0B
:1001A000F2F0411EB1F1807F00D31DE021F07F40CD
:1001B000401E4FF0E022506150170F22002807DA4E
:1001C00013071D0E384B00F00F04241F1D5503E0CC
:1001D00013071C0E354B1C5400BF00204FF0E022CB
:1001E00090610720106100BF0821314805F0C6FA70
:1001F000304908600421304805F0C0FA2F490860F2
:1002000008212F4805F0BAFA2E49086008232E4A23
:1002100000212E4806F012F809232D4A00212D480E
:1002200006F00CF80C232C4A00212C4806F006F8A6
:100230000B232B4A00212B4806F000F80A232A4AF8
:1002400000212A4805F0FAFF0D23294A00212948F8
:1002500005F0F4FF0F23284A0021284805F0EEFF9F
:100260003B2006F072FA06E04FF47A730022114642
:10027000104606F05FFBF7E710B521480EF0A8F82E
:1002800000F07AFA04F08DF83B231E4A0021AFF209
:10029000F70005F0D3FF002006F0D2FB04F072F95E
:1002A000002010BD4800002018ED00E000E400E050
:1002B0002CDA0020000000204CDA0020040000208E
:1002C0005CDA002008000020F444002051030008FC
:1002D000B4250020BB030008344B00203D03000878
:1002E0007451002009030008B457002029030008B6
:1002F00034A8002067050008349800204B06000849
:1003000050D30020740600200DE00EF025FE0FF003
:10031000C3F80FF0B3FA0FF001FFC8230022114613
:10032000104606F007FBF0E707E00EF0EBFE0A23AD
:1003300000221146104606F0FDFAF6E707E00EF03F
:1003400020FC002302221946184606F0F3FAF6E7CD
:1003500032E04FF0804002F05DFAC74988611AF040
:1003600095FB044620461FF025F820461FF022F892
:1003700005462946204600F07FFB204628F076FB04
:100380004FF0804002F046FABB49C8610846C06998
:100390008969401AB849096A884206D9B648C069CD
:1003A000B5498969401AB4490862002301221946F7
:1003B000184606F0BFFA00BFCBE722E04FF08040BE
:1003C00002F028FAAC49C86000F080FB4FF0804092
:1003D00002F020FAA849086108460069C968401A75
:1003E000A5494969884206D9A3480069A249C96854
:1003F000401AA1494861C82300221146104606F060
:1004000099FADBE708B50020009000F0EDFA00F063
:10041000EBF900F0C5FB56E04FF0804002F0FAF92E
:100420009549086029E09548D0F88803401E934913
:10043000C1F8880300EB4001C1EBC010904901EB0B
:10044000C0009049096848608C49D1F8881301EBD5
:100450004102C2EBC1118A4A02EBC1001EF0AAFFA1
:1004600080B28849096808818649096848818548B9
:100470000168854800680BF064FF8048D0F8880365
:100480000028D0DC0098401C0090009800F0D9F9BA
:100490004FF0804002F0BEF9774948600846406856
:1004A0000968401A74498968884206D972484068C8
:1004B00071490968401A704988600A230022114670
:1004C000104606F037FAA7E70EB50020029000F0BC
:1004D0008BFA00F089F969205721A823C022CDE9C1
:1004E000001041F6824140F2064000F00BFC39E07A
:1004F00000F042FC04464CB323E06049D1F8881375
:10050000491E01EB4102C2EBC1115D4A02EBC10081
:100510001EF050FF05465948D0F88803401E00EBF6
:100520004002C2EBC010564A02EBC0012A462046E8
:1005300000F089FB5148D0F88803401E4F49C1F8AC
:1005400088034E48D0F888030028D6DC0298401C67
:100550000290029800F075F96423002211461046BB
:1005600006F0E8F9C4E7ADF50E7D01A9002016F00C
:100570006DFD0121080301F0FBFC20F07BFD002054
:1005800021F0B6FA414821F0BEFA414821F0D8FAEC
:10059000022021F031FB21F0ABFB0A2211463DA0E5
:1005A00020F074FC1E220A2140A020F06FFC3222B1
:1005B0000A2144A020F06AFC46220A2147A020F02C
:1005C00065FC5A220A214BA020F060FC09204E490C
:1005D00081F8D40334E04C4890F9D403072825D09F
:1005E00006DC06282BD2DFE800F02A0C0F121518C3
:1005F00008281ED009281FD03D2811D03E281ED122
:1006000011E01BF001FD1AE01BF018FE17E01CF0D2
:1006100003FA14E01CF03EFE11E01DF005FA0EE0B6
:100620001DF0F5FC0BE01EF003F808E01EF01DF9CC
:1006300005E01EF0CEFA02E01EF05EFB00BF00BF38
:10064000C9E701E00DF0E4FFFCE713E020212F48AB
:1006500001F0C4FA642300221146104606F06AF93C
:1006600020212A4801F0BCFA00230222194618462C
:1006700006F060F9EAE700007CDA002038BC0020D0
:1006800038AC00202000002018000020F0FED1002F
:100690008CB9020843505520202020202020202003
:1006A00053544D3332463230370000004C4344201F
:1006B0002020202020202020202034383078333281
:1006C00030000000455852414D202020202020209D
:1006D0002020202020204F4B21000000475549209A
:1006E0002020202020202020202020202020204FDB
:1006F0004B210000504C4541534520574149544936
:100700004E472E2E2E00000054D60020000002403E
:10071000F8B5002400200090002600BF0BE0012265
:100720002146684600F086FC9DF80000401CC0B2DF
:10073000009004F58054B4F5801FF0D3002415E038
:1007400001222146684600F081FC14B99DF8006042
:1007500004E09DF80000B04200DC0AE09DF80000D3
:10076000801B401C0004850B04F58054B4F5801FE9
:10077000E6D300BF2846F8BD10B500F01CF80EF017
:1007800087FA00F02DFB012003F0C3F80DF0F7FD10
:1007900011F032FB0DF062FF0EF037F80EF068FA40
:1007A0000EF0FEFB0EF0AAFE0FF09EF80FF083F99C
:1007B00010F0F5FA10BD08B500214FF0006000F010
:1007C0005BFD4FF4407000F01DFD3D208DF80000F2
:1007D00000208DF801008DF8020001208DF8030043
:1007E000684600F014FD08BD00B587B00CF0F4FBBE
:1007F00008F0A2FA204806F01BFC06906FF0FF00FC
:1008000006F016FC05901C48FB3806F011FC04901D
:100810001A481B49002204ABCDE90021029005AA29
:1008200006A9184808F033FB164808F062FB154883
:1008300008F0A9FB07B000BD10B512480CF052FB40
:1008400010BD01B5104900980968401AFA2804D370
:100850000D490098086009F06DFA0C490098096884
:10086000401A41F28831884204D308490098086050
:100870000BF0F7FD08BD0000FC57A8C027CD00080D
:1008800011CF0008B8DA00200C0000201000002072
:1008900000E0401E0028FCD1704700B5AFB0012138
:1008A0004FF0606001F064FB0CF00CFD0DF078FA85
:1008B00000BF0DF07CFA0128FBD068460CF00DFD5E
:1008C00001200090002007904FF400700A90002053
:1008D0000B900E9011901390149015904FF480602F
:1008E0000990002020904FF000702190001123907B
:1008F00000202590269004202890C00529904012C1
:100900002A9080012B9040122C9040002E900121C3
:1009100068460CF09CFD012138480DF05FFA2FB0BD
:1009200000BD1CB50121472001F022FB01218803F5
:1009300001F062FB012001F05CFE03208DF8050050
:1009400002208DF8040000208DF806008DF80700C5
:100950008620009069462A4801F0C4F80B22012144
:10096000274801F04AF90B220221254801F045F9F8
:100970000B220721224801F040F9322000906946FD
:10098000204801F0AFF80B2201211E4801F035F993
:100990000B2204211B4801F030F90B2205211948D4
:1009A00001F02BF94FF4006000906946164801F001
:1009B00099F80B221146144801F01FF94FF4C0407A
:1009C00000906946114801F08DF80B220D210F4867
:1009D00001F013F90B220E210C4801F00EF98021D1
:1009E000074801F0FBF81CBD10B54FF4FA60FFF7A3
:1009F0004FFFFFF796FFFFF750FF10BD40000100CB
:100A000000000240000802400004024000180240BA
:100A1000704706E064200EF091F92021144801F09F
:100A2000E8F8F7E700BFFEE700BFFEE700BFFEE71C
:100A30007047704710B503F06BF804460D48007816
:100A4000401C0C490870204603F066F801E0FFF7EF
:100A5000F3FE0DF073F80028F9D140200DF0D5F920
:100A60004FF480300DF0D1F903F0C9FC10BD000047
:100A7000000002409100002070B505460C46664813
:100A8000D0F88803052820DA6349D1F8881301EBF0
:100A90004102C2EBC111614A02EBC1002246294664
:100AA0001EF022FC00215C48D0F8880300EB4002D5
:100AB000C2EBC010594A02EBC00001555648D0F8AD
:100AC0008803401C5449C1F8880370BD10B510E07C
:100AD0005348D0F88803401E5149C1F8880300EB01
:100AE0004001C1EBC0104F4901EBC00420461AF091
:100AF00064F94B48D0F888030028E9DC10BD2DE9E3
:100B0000F0470746884615469946089E2C4628E039
:100B10004348D0F88803052822DA6289404B61688F
:100B2000D3F8883303EB430CCCEBC313DFF8F4C0EA
:100B30000CEBC3001EF0D8FB00213948D0F8880325
:100B400000EB4002C2EBC010364A02EBC0006289E3
:100B500081543348D0F88803401C3149C1F88803D8
:100B60002468002CD4D1284608F040FABDE8F0876C
:100B70002DE9F04104460D4616461F46DDF8188063
:100B80002906F2B241EA0241FAB241EA022108F032
:100B9000FF0241EA020006F04BFA2060BDE8F08156
:100BA00008B500224FF47A71032008F056FA1E4966
:100BB000086069205723A822C02100901B48FFF736
:100BC000D7FF0BF026FC1A49086040F2064219498B
:100BD000174800680BF004FB40F207421349144821
:100BE00000680BF0B8FB0022AFF2ED01104800687E
:100BF0000BF0EEFB08BD00BF411E0800FCD17047A2
:100C000070B504460D46294620460BF09AFB0A486B
:100C1000FFF7F1FF70BD000038BC002038AC0020A9
:100C2000C4CF0020C4BF0020200000201C000020F2
:100C30001800002044960208FFFF0F0000BF411E6D
:100C40000800FCD170472DE9F04105460E461446D8
:100C5000A2B20123314628460AF0E6FE074628469E
:100C60000AF096FF3846BDE8F0812DE9F041804654
:100C70000E4615461F462C46B4B32189304608F06F
:100C8000E6FF5048D0F88803052831DA4D49D1F8FD
:100C9000881301EB4102C2EBC1114B4A02EBC100C8
:100CA0004AA127F0DFF814E02089B0F5617F00DD6C
:100CB00011E06289434B6168D3F8883303EB430C3E
:100CC000CCEBC313DFF800C10CEBC3001EF094FBA8
:100CD0002468002CE8D100BF3A48D0F88803401CB3
:100CE0003849C1F8880303E0FFE7304608F002FF07
:100CF000284608F07BF900273846BDE8F081034616
:100D0000002070472DE9F84F05460E4617469846D5
:100D1000DDE90A9A390608F0FF0241EA024109F0CA
:100D2000FF0241EA02210AF0FF0241EA020006F056
:100D30007FF9009009F0B5FA254908600846006877
:100D400008B9BDE8F88F2A4622492148006809F011
:100D50007EF8044604B1F4E7AFF25D03324669461B
:100D60001B48006809F06AF9AFF2011118480068E1
:100D700009F09EFA00BFE4E71CB5002400201649E4
:100D800008701648046807E0207C042803D101207D
:100D90001149087002E0E468002CF5D100BF0E484C
:100DA000007860B969205721A823C022CDE900103E
:100DB00041F6824140F20640FFF7A4FF002420469E
:100DC0001CBD0000C4CF0020C4BF002000000000F4
:100DD000240000204496020828000020240100205E
:100DE00000B599B00121782001F0C2F80121084630
:100DF00001F0E0F80C220021A34800F0FEFE0C22D6
:100E00000121A14800F0F9FE0C2204219E4800F0C7
:100E1000F4FE0C2205219C4800F0EFFE0C22082174
:100E2000994800F0EAFE0C220921974800F0E5FEFF
:100E30000C220A21944800F0E0FE0C220B2192487B
:100E400000F0DBFE0C2211468F4800F0D6FE0C228B
:100E50000D218D4800F0D1FE0C220E218A4800F0B1
:100E6000CCFE0C220F21884800F0C7FE4FF63370ED
:100E7000019002208DF8080003208DF80900002061
:100E80008DF80A008DF80B0001A97F4800F02AFEBA
:100E90000C2200217D4800F0B0FE0C2201217B488D
:100EA00000F0ABFE0C220721784800F0A6FE0C22D1
:100EB0000821764800F0A1FE0C220921734800F0B9
:100EC0009CFE0C220A21714800F097FE0C220B2197
:100ED0006E4800F092FE0C2211466C4800F08DFE28
:100EE0000C220D21694800F088FE0C220E21674873
:100EF00000F083FE0C220F21644800F07EFE4FF6C6
:100F00008370019001A9614800F0ECFD0C220021E2
:100F10005F4800F072FE0C2201215D4800F06DFE7A
:100F20000C2202215A4800F068FE0C220321584886
:100F300000F063FE0C220421554800F05EFE0C22F6
:100F40000521534800F059FE0C221146504800F08C
:100F500054FE0C220D214E4800F04FFE0C220E21B3
:100F60004B4800F04AFE0C220F21494800F045FE94
:100F70004FF23F00019001A9454800F0B3FD0C225B
:100F80000021444800F039FE0C220121414800F0C4
:100F900034FE0C2202213F4800F02FFE0C220321D8
:100FA0003C4800F02AFE0C2204213A4800F025FEBD
:100FB0000C220521374800F020FE0C22092135487B
:100FC00000F01BFE0C220A21324800F016FE40F20F
:100FD0003F60019001A92F4800F084FD002003909C
:100FE00004900520059001200690002007900890AD
:100FF000099004200A9000200B9004200C901020EF
:101000000D9000200E900F901090119012904FF4C0
:1010100080501390002014901590169003A81790FC
:1010200018900AA800F007FA0121042000F0AFFA96
:1010300019B000BD10B506E004784FF0D0435C5401
:10104000891C401C521E002AF6D110BD06E04FF04C
:10105000D0435B5C00F8013B891C521E002AF6D18C
:10106000704713B50C46012221466846FFF7E2FFA0
:101070001CBD18B50446012221466846FFF7E6FF6D
:101080009DF8000018BD0000000C02400010024056
:10109000001402400018024000BF704700BF554ACC
:1010A000128802F04002002AF9D0C2B2514B9A8055
:1010B000704710B588B004460121092000F058FFA0
:1010C0000121102000F098FF4A4802F0FBF802A826
:1010D00002F0ACF9684602F0C5F902208DF81C0058
:1010E0008DF81D0000208DF81E0001208DF81F00D6
:1010F0004002069006A9404800F0F4FC07220921AE
:101100003D4800F07AFD4FF48060069006A93A4809
:1011100000F0E8FC07220A21374800F06EFD69461E
:10112000344802F08FF902944FF48050ADF80C006F
:101130000020ADF80E00ADF81000ADF814000C2042
:10114000ADF8120002A92B4802F00AF9012240F280
:101150002551284802F042FA002240F22441254855
:1011600002F03CFA0121234802F082F940F22661A4
:10117000204802F0A5FA08B010BD10B540F2255184
:101180001C4802F066FA10B31A4802F0A0F9C4B283
:101190001A48008800F40040C8B91848008800F4D4
:1011A000804060B10A2C03D000201449088020E060
:1011B0001248008840F400401049088019E00D2CC6
:1011C00006D10E48008840F480400C49088010E0A9
:1011D0000A480088C0F30D0009490C5407480088EC
:1011E000401C0649088008460088C72801DD002009
:1011F000088010BD001001400000024034000020B3
:10120000F0DA002032490143324A1160704770B56C
:10121000002100230F22C4781CB32E4C246804F450
:10122000E064C4F5E064C4F30721C1F10404E3B24F
:101230000A4144789C40E1B28478144021430C0771
:10124000210E254C05786155047804F01F05012412
:10125000AC4005786D11AD0005F1E025C5F8004101
:1012600009E0047804F01F050124AC401B4D06780A
:10127000761145F8264070BD194A0A400243154BC5
:101280001B1F1A60704739B1124A121D12680243BF
:10129000104B1B1D1A6006E00E4A121D1268824395
:1012A0000C4B1B1D1A607047042808D14FF0E02139
:1012B000096941F004014FF0E022116107E04FF0AD
:1012C000E021096921F004014FF0E022116170472B
:1012D0000000FA050CED00E000E400E080E100E031
:1012E00080FFFF1F002044490860091D0860091D98
:1012F0000860091D086041483F4914310860704783
:1013000000213D498279002A3AD00A4612680368D2
:101310009A430B461A600A1D126803689A430B1D14
:101320001A60027911440A6803681A430A60324A53
:101330000832126803689A432F4B08331A601A1D4B
:10134000126803689A432C4B0C331A604279102AB6
:101350000ED11A1F126803681A43274B08331A600C
:101360001A1D126803681A43234B0C331A600DE0F0
:101370002149427911440A6803681A430A6005E06A
:10138000027911440A6803689A430A607047002191
:10139000016001710C214171002181717047164972
:1013A000103109680143144A103211607047014638
:1013B0000020114A143212680A400AB1012000E0EC
:1013C000002070470C491431086070470146002026
:1013D0000022094B1B6803EA0102074B14331B6808
:1013E0000B4013B10AB1012000E000207047024910
:1013F0001431086070470000003C0140FFFF7F008F
:1014000030B943F2DB028100A1F1C0410A6005E07E
:1014100043F2D2028100A1F1C0410A606FF0704234
:10142000411C8900A1F1C0410A608100A1F1C041C5
:10143000C1F804217047D0E901121143C268114379
:10144000026911434269114382691143C269114320
:10145000026A1143426A1143826A1143C26A11430C
:10146000026B114302689200A2F1C04211608168D0
:1014700008290BD101688900A1F1C041096841F038
:10148000400201688900A1F1C0410A60416B09680E
:10149000426B526841EA0211426B926841EA0221B2
:1014A000426B928941EA0241426B128A41EA02513F
:1014B000426B127D41EA0261426B926911430268FC
:1014C000521C9200A2F1C0421160C16AB1F5804F76
:1014D0001BD1816B0968826B526841EA0211826BF1
:1014E000926841EA0221826B128A41EA0251826BC0
:1014F000127D41EA0261826B926911430268920097
:10150000A2F1C042C2F8041107E06FF07042016816
:101510008900A1F1C041C1F8042170470021016098
:101520000221416000218160C160016141618161EE
:10153000C16101624FF48051416249008162002122
:10154000C16201630F21426B1160426B5160FF2148
:10155000426B91600F21426BD160426B1161426B13
:1015600051610021426B91610F21826B1160826B8E
:101570005160FF21826B91600F21826BD160826B81
:101580001161826B51610021826B9161704751B191
:101590008200A2F1C042126842F001038200A2F16F
:1015A000C042136009E08200A2F1C0421268F94B08
:1015B0001A408300A3F1C0431A60704710280AD173
:1015C00018214FF020421166402151664FF0FC3146
:1015D0009166D16610E01821EF4A116040214FF06A
:1015E0002042C2F884104FF0FC31EB4A08321160FF
:1015F0004FF02042C2F88C10704730B50021002215
:101600000023446844F0080485682C43C5682C43D3
:1016100005692C43456944EA4524856944EA453116
:10162000C4692468C5696D6844EA0524C5692D89C3
:1016300044EA0544C5692D7B44EA0562046A2468CE
:10164000056A6D6844EA0524056A2D8944EA054463
:10165000056A2D7B44EA05630468102C05D14FF020
:1016600020442166A266E36608E0CB4C21604FF07F
:101670002044C4F88820C84C0C34236030BD1021AD
:101680000160002141608160C1600161416181614F
:10169000FC21C2691160C2695160C2699160C2696E
:1016A000D160026A1160026A5160026A9160026A46
:1016B000D160704799B1102808D14FF02042126EC6
:1016C00042F004024FF020431A661DE0B24A12684D
:1016D00042F004024FF02043C3F8802014E01028A9
:1016E00009D14FF02042126EAA4BDB1E1A404FF078
:1016F00020431A6608E0A84A1268A64BDB1E1A406F
:101700004FF02043C3F88020704799B1102808D1CA
:101710004FF02042126E42F040024FF020431A6612
:101720001DE09D4A126842F040024FF02043C3F88A
:10173000802014E0102809D14FF02042126E954B02
:101740003F3B1A404FF020431A6608E0924A126865
:10175000904B3F3B1A404FF02043C3F88020704726
:1017600001460020102903D14FF02042506F02E0C3
:10177000894A143210687047182087492031086060
:1017800000200906C1F8A4004FF0FC30824928313E
:101790000860091D0860091D08607047016841F074
:1017A0001001426841EA4221826841EA42317A4AA4
:1017B00020321160C1680968C268526841EA02219A
:1017C000C268128941EA0241C268127B41EA0261A1
:1017D000714A28321160016909680269526841EA58
:1017E00002210269128941EA02410269127B41EA3F
:1017F0000261694A2C321160416909684269526884
:1018000041EA02214269128941EA02414269127B9E
:1018100041EA02614FF02042C2F8B0107047002147
:10182000016041608160FC21C2681160C268516042
:10183000C2689160C268D16002691160026951603A
:10184000026991600269D160426911604269516028
:10185000426991604269D160704748B14E49203178
:10186000096841F004014FF02042C2F8A01009E0DD
:10187000494920310968474AD21E11404FF02042A1
:10188000C2F8A010704710B5F2B1102807D14FF080
:1018900020435B6E0B434FF02044636632E0B0F5AB
:1018A000807F08D13C4B1B1D1B680B434FF020442D
:1018B000C4F8843026E0384B24331B680B434FF0C8
:1018C0002044C4F8A4301DE0102807D14FF0204375
:1018D0005B6E8B434FF02044636613E0B0F5807F6E
:1018E00008D12D4B1B1D1B688B434FF02044C4F8BF
:1018F000843007E0284B24331B688B434FF020448F
:10190000C4F8A43010BD10B5024600200023102AF0
:1019100003D14FF02044636E09E0B2F5807F03D11C
:101920001D4C241D236802E01B4C2434236803EA69
:1019300001040CB1012000E0002010BD102807D1E7
:101940004FF02042526E8A434FF020435A6613E014
:10195000B0F5807F08D1104A121D12688A434FF0FB
:101960002043C3F8842007E00B4A243212688A43DC
:101970004FF02043C3F8A420704770B50246002002
:10198000002300240025102A08D14FF02046736E52
:101990000DE00000FEFF0F00800000A0B2F5807F88
:1019A00002D1184E336802E0164E2036336803EA3F
:1019B000010403EAD10514B10DB1012000E00020BB
:1019C00070BD102808D14FF02042526E22EAD10299
:1019D0004FF020435A6614E0B0F5807F08D1094AE1
:1019E000126822EAD1024FF02043C3F8842008E0B5
:1019F000044A2032126822EAD1024FF02043C3F891
:101A0000A4207047840000A010B504468C4884428E
:101A100008D10121084600F000FB0021012000F060
:101A2000FCFA5EE08748844208D10121022000F0E0
:101A3000F4FA0021022000F0F0FA52E082488442D9
:101A400008D10121042000F0E8FA0021042000F070
:101A5000E4FA46E07D48844208D10121082000F0E4
:101A6000DCFA0021082000F0D8FA3AE078488442F5
:101A700008D10121102000F0D0FA0021102000F040
:101A8000CCFA2EE07348844208D10121202000F0D6
:101A9000C4FA0021202000F0C0FA22E06E488442FF
:101AA00008D10121402000F0B8FA0021402000F0C8
:101AB000B4FA16E06948844208D10121802000F080
:101AC000ACFA0021802000F0A8FA0AE064488442C1
:101AD00007D10121801500F0A0FA0021A01500F027
:101AE0009CFA10BDF0B50A4600210023002400BF77
:101AF0003DE0012505FA01F3156805EA03049C425F
:101B000034D105684F000326BE40B5430560157902
:101B10004E00B5400668354305601579012D02D0A9
:101B20001579022D16D185684F000326BE40B543B6
:101B3000856055794E00B5408668354385604568B7
:101B400001268E40B5434560456896798E40B6B211
:101B500035434560C5684F000326BE40B543C560A8
:101B6000D5794E00B540C6683543C560491C10297B
:101B7000BFD3F0BD4FF6FF710160002101714171CB
:101B80008171C171704708B54FF480320092009A9C
:101B90000A430092009AC261C161009AC261C2699F
:101BA0000092C269009208BD0246002013690B40F2
:101BB0000BB1012000E0002070470146086980B2A7
:101BC00070470246002053690B400BB1012000E032
:101BD000002070470146486980B270470183704712
:101BE000418370470AB1018300E04183704741613E
:101BF000704742694A4042617047F0B500230024B3
:101C00004D07ED0E02FA05F3CE1000F1200555F850
:101C100026504E07F70E0F26BE40B543CF1000F1F9
:101C2000200646F82750CE1000F1200555F8265022
:101C300045EA0304CE1000F1200545F82640F0BD2A
:101C4000000002400004024000080240000C024074
:101C5000001002400014024000180240001C024024
:101C600000200240FA48006840F00100F84908608E
:101C70000020F74908310860F5480068F549084038
:101C8000F3490860F448091D0860081F006820F443
:101C90008020091F08600020ED490C310860704762
:101CA0000021EB4A921C117011460870704710B564
:101CB00001460022002300204A11012A02D1E44CEF
:101CC000236808E0022A03D1E14C7034236802E063
:101CD000DF4C7434236801F01F02012494401C403F
:101CE0000CB1012000E0002010BD38B500200090AC
:101CF0000024002500BF3120FFF7D9FF05460098DA
:101D0000401C00900098B0F5A06F01D0002DF2D0DB
:101D10003120FFF7CCFF08B1012400E00024204669
:101D200038BD01460020CA4A106820F0F80040EA99
:101D3000C10010607047C949086070470021C44A5B
:101D4000703211701170012802D004280AD104E009
:101D50000121BF4A7032117005E00521BC4A703282
:101D6000117000E000BF00BF7047BD4908607047B8
:101D700070B5049C41EA82150126C6EB530645EA7C
:101D80000645054345EA0465B14E361D356070BD14
:101D9000B24908667047820142EA0172AC4B843353
:101DA0001A607047AD4988667047AC49C86470478F
:101DB00002460020A64B0833186820F0EC6042EA87
:101DC00001031843A24B08331860704702460020F5
:101DD0009F4B0833186820F0784042EA010318430B
:101DE0009B4B08331860704701460020984A083220
:101DF000106820F0030008431060704794480830D2
:101E0000006800F00C00704701460020904A08323C
:101E1000106820F0F0000843106070470146002071
:101E20008B4A0832106820F4E05008431060704775
:101E300001460020864A0832106820F4604040EADB
:101E4000C10010607047F0B5002100220024022577
:101E5000002602237E4F08373F6807F00C0121B1AE
:101E6000042905D0082937D105E07E4F076036E008
:101E70007D4F076033E0764F3F1D3F68C7F38056C4
:101E8000734F3F1D3F6807F03F036EB1764FB7FBBE
:101E9000F3F7DFF8BCC10CF1040CDCF800C0CCF3A4
:101EA000881C07FB0CF40CE06E4FB7FBF3F7DFF870
:101EB000A0C10CF1040CDCF800C0CCF3881C07FBBB
:101EC0000CF4634F3F1D3F68C7F301477F1C7D0043
:101ED000B4FBF5F7076002E0624F076000BF00BF88
:101EE0005B4F08373F6807F0F00109095F4F7A5CE4
:101EF0000768D7404760564F08373F6807F4E051FE
:101F0000890A5A4F7A5C4768D7408760504F083734
:101F10003F6807F46041490B544F7A5C4768D740EB
:101F2000C760F0BD002100F44072B2F5407F0AD1D5
:101F3000474A0832116821F4F8114D4A0240114312
:101F4000434A08321160424A70321268C0F30B03F0
:101F50001A433F4B70331A60704741494439086057
:101F600070473F49403908607047424908607047F0
:101F700039B1374A303212680243354B30331A6078
:101F800006E0334A303212688243314B30331A60F4
:101F9000704739B12E4A3432126802432C4B343325
:101FA0001A6006E02A4A343212688243284B3433DE
:101FB0001A60704739B1264A383212680243244BFE
:101FC00038331A6006E0224A383212688243204BC6
:101FD00038331A60704739B11D4A403212680243E3
:101FE0001B4B40331A6006E0194A403212688243A4
:101FF000174B40331A60704739B1154A44321268A2
:102000000243134B44331A6006E0114A443212680B
:1020100082430F4B44331A60704739B10C4A103277
:10202000126802430A4B10331A6006E0084A103265
:1020300012688243064B10331A607047E1B1044ABC
:10204000143212680243024B14331A6019E0000084
:1020500000380240FFFFF6FE103000240000474227
:10206000800E47420024F40040787D0136000020B5
:10207000FFFCFF0F5C0147425B4A126882435A4BE8
:102080001A60704739B1584A121D12680243564B04
:102090001B1D1A6006E0544A121D12688243524BFF
:1020A0001B1D1A60704739B14F4A0C321268024347
:1020B0004D4B0C331A6006E04B4A0C3212688243D7
:1020C000494B0C331A60704739B1474A10321268D5
:1020D0000243454B10331A6006E0434A103212683F
:1020E0008243414B10331A60704739B13E4A3C324B
:1020F000126802433C4B3C331A6006E03A4A3C32D9
:1021000012688243384B3C331A60704739B1364A03
:10211000403212680243344B40331A6006E0324AC0
:10212000403212688243304B40331A60704739B1F5
:102130002D4A4432126802432B4B44331A6006E0A6
:10214000294A443212688243274B44331A6070474D
:1021500039B1254A4C3212680243234B4C331A6082
:1021600006E0214A4C32126882431F4B4C331A60FE
:10217000704739B11C4A5032126802431A4B50332F
:102180001A6006E0184A503212688243164B5033E8
:102190001A60704739B1144AD21F12780243124BA9
:1021A000DB1F1A7006E0104AD21F127882430E4BD2
:1021B000DB1F1A7070470C486030006840F0807078
:1021C000094960310860704701460020064A083A14
:1021D00012680A400AB1012000E00020704702495D
:1021E000891F0870704700001438024010B504467B
:1021F000E348844208D101218014FFF765FF0021E4
:10220000A014FFF761FF16E0DE48844208D10121E7
:102210000014FFF748FF00212014FFF744FF0AE0F5
:10222000D948844207D10121C013FFF73CFF0021A8
:10223000E013FFF738FF10BD10B50022028802F44A
:1022400041520B884C8823438C882343CC882343FA
:102250000C8923434C8923438C892343CC89234312
:102260001A430280838B4FF2FF74234083830B8ACF
:10227000038210BD2DE9F04F002502230024012721
:1022800000220026944690469146B0F81CA04FF2DA
:10229000400B0AEA0B0AA0F81CA04FF0020AA0F8B3
:1022A00020A0858BD1F808A0BAF1020F01D100BFA0
:1022B0006CE0B1F804A0BAF1000F01D1012700E0F1
:1022C0000227DFF8C8A2DAF800A00AF4000ABAF17F
:1022D000000F09D0DFF8B4A2DAF800A02AF4000A4F
:1022E000DFF8A8B2CBF800A0DFF8A0A20AF17C0AC0
:1022F000DAF800A0CAF38818DFF890A20AF17C0A85
:10230000DAF800A0CAF30279DFF880A2AAF1040A81
:10231000DAF800A00AF03F0CDFF874A2BAFBFCFA6E
:102320000AFB08FABAFBF9F6B1F806A0BAF5007F85
:102330000ED14FEA162A0AEB8A0A4FEA4A0AD1F866
:1023400008B0BAFBFBFA0AF1050A1FFA8AF20FE09D
:102350004FEA471AB6FBFAFA0AEB8A0A4FEA4A0A28
:10236000D1F808B0BAFBFBFA0AF1050A1FFA8AF2A3
:102370004FF00A0AB2FBFAF202F00104A2EB040ADF
:10238000CAF34F034FF6FF7A0AEA0424022B01DB5B
:10239000FF2B01DD02230024B1F806A04AEA040A5B
:1023A0004AEA030AA0F820A0B1F804A0B1F80CB0E2
:1023B0004AEA0B0AB1F802B04AEA0B0AB1F800B0D7
:1023C0004AEA0B0A4AF4006A4AEA05058583BDE831
:1023D000F08F0021018041808180C1800181418195
:1023E0008181C181072101827047002101804180E4
:1023F0008180C1800221816000218181704721B1EB
:10240000028842F04002028004E002884FF6BF7367
:102410001A400280704721B1828B42F4806282832D
:1024200004E0828B4FF6FF331A40828370470288A4
:102430004FF2FF731A40028002880A4302807047FD
:10244000B1F5804F04D1028842F48042028004E05A
:1024500002884BF6FF731A40028070474FF6FF6206
:10246000914204D0028842F48072028004E0028823
:102470004FF6FF631A400280704721B1828842F014
:102480000402828004E082884FF6FB731A40828047
:10249000704721B1828842F01002828004E0828875
:1024A0004FF6EF731A408280704701468889704763
:1024B0008181704721B1028842F40052028004E019
:1024C00002884DF6FF731A4002807047018841F47C
:1024D00080510180704702460020012901D0108BF5
:1024E00000E0908A70470146088A70471AB18388D5
:1024F0000B43838002E083888B438380704730B531
:10250000002400230C110125A540ABB21AB1858827
:102510001D43858002E085889D43858030BD02464D
:10252000002013890B400BB1012000E00020704710
:10253000CA4302817047F0B5024600200024002300
:10254000002501F00F070126BE40B4B20B11012691
:102550009E40B3B2968806EA03051689264016B156
:102560000DB1012000E00020F0BD10B5002201F007
:102570000F040123A3409AB2D343038110BD00008E
:102580000030014000380040003C00400838024064
:1025900040787D0110B501218803FFF795FD0021EA
:1025A0004FF48040FFF790FD10BD1A490860704756
:1025B00030B500228B071C0F0F2303FA04F2154BD2
:1025C00008338C1053F824309343124C08348D1088
:1025D00044F8253023468C1053F824308C07240F00
:1025E00000FA04F423430B4C08348D1044F82530D2
:1025F00030BD0949086070470849086070470020ED
:1026000004492031096801F4807109B1012000E01A
:102610000020704700380140DC00274200042742B8
:1026200010B50446FE48844208D101210846FFF750
:102630004BFD00210120FFF747FD9DE0B4F1804FE5
:1026400008D101210846FFF72EFD00210120FFF7E8
:102650002AFD91E0F348844208D101210220FFF7CE
:1026600022FD00210220FFF71EFD85E0EE48844296
:1026700008D101210420FFF716FD00210420FFF7F7
:1026800012FD79E0E948844208D101210820FFF7D2
:102690000AFD00210820FFF706FD6DE0E4488442B2
:1026A00008D101211020FFF7FEFC00211020FFF7C8
:1026B000FAFC61E0DF48844208D101212020FFF7C5
:1026C000F2FC00212020FFF7EEFC55E0DA488442BE
:1026D00008D101210220FFF7F7FC00210220FFF7BB
:1026E000F3FC49E0D548844209D101210804FFF7F1
:1026F000EBFC00214FF48030FFF7E6FC3CE0D048D3
:10270000844209D101214804FFF7DEFC00214FF487
:102710000030FFF7D9FC2FE0CA48844209D10121DB
:102720008804FFF7D1FC00214FF48020FFF7CCFC98
:1027300022E0C548844208D101214020FFF7B3FCC4
:1027400000214020FFF7AFFC16E0C048844208D1CA
:1027500001218020FFF7A7FC00218020FFF7A3FCC8
:102760000AE0BB48844207D101218015FFF79BFC9A
:102770000021A015FFF797FC10BD00220288A84B8E
:1027800098420ED0AC4B98420BD0B0F1804F08D09D
:10279000A44B984205D0A44B984202D0A34B984238
:1027A00004D14FF68F731A404B881A43A04B9842BE
:1027B00007D0A04B984204D04FF6FF431A400B8934
:1027C0001A4302804B68C3620B880385944B98427E
:1027D00002D0994B984201D18B7A038601238382E0
:1027E00070474FF0FF31416000210180018141803D
:1027F000817270470185828270470A4600210188F4
:102800004FF68F7319401143018070474162704742
:10281000C16270470146486A70470146088D70479B
:1028200021B1028842F00202028004E002884FF6E1
:10283000FD731A400280704721B1028842F0040201
:10284000028004E002884FF6FB731A400280704752
:1028500021B1028842F08002028004E002884FF633
:102860007F731A400280704702884FF6F7731A4050
:10287000028002880A430280704702884FF6FF43B5
:102880001A40028002880A430280704721B1028800
:1028900042F00102028004E002884FF6FE731A4003
:1028A0000280704770B5002400220023058C4FF68B
:1028B000FE7635400584028C8388048B4FF68F7535
:1028C0002C40B51E2C400D882C43751E2A408D8946
:1028D0002A434D882A43524DA84202D0564DA84261
:1028E00013D14FF6F7752A40CD892A434FF6FB7571
:1028F0002A408D882A434FF6FF652B404FF6FF553F
:102900002B400D8A2B434D8A2B43838004838D6893
:102910004563028470BD70B5002400220023058C3D
:102920004FF6EF7635400584028C8388048B48F699
:10293000FF752C404FF6FF452C400D884FF6FF7673
:1029400006EA05252C434FF6DF752A408D8906EAF5
:1029500005152A434D8806EA05152A43304DA8423D
:1029600002D0354DA8421DD14FF67F752A40CD8942
:102970004FF6FF7606EA05152A434FF6BF752A4043
:102980008D8806EA05152A434FF6FF352B404FF296
:10299000FF752B400D8A06EA85052B434D8A06EA12
:1029A00085052B43838004838D688563028470BD15
:1029B00070B5002400220023058C4FF6FF663540D9
:1029C0000584028C8388848B4FF68F752C404FF6DC
:1029D000FC752C400D882C434FF6FF552A408D89FD
:1029E0004FF6FF7606EA05252A434D8806EA0525B7
:1029F0002A430B4DA84202D00F4DA84238D14FF2C6
:102A0000FF752A40CD894FF6FF7606EA05252A4351
:102A10004FF6FF352A408D8806EA05252A4319E03E
:102A2000000001400004004000080040000C00408D
:102A3000001000400014004000040140004001402C
:102A4000004401400048014000180040001C0040C4
:102A5000002000404EF6FF752B404DF6FF752B40D1
:102A60000D8A06EA05152B434D8A06EA05152B4308
:102A7000838084838D68C563028470BD70B5002235
:102A800000230024058C4EF6FF7635400584038C28
:102A90008488828B48F6FF752A404FF6FF452A400E
:102AA0000D884FF6FF7606EA05252A434DF6FF7599
:102AB0002B408D8906EA05352B434D8806EA0535FE
:102AC0002B43FE4DA84202D0FD4DA84208D14BF643
:102AD000FF752C400D8A4FF6FF7606EA85152C43CC
:102AE000848082838D680564038470BD0021018029
:102AF0004180818081608181C181018241827047F2
:102B000070B50346002000241846183001258D407A
:102B1000ACB21D8CA5431D8409B108290AD100EB74
:102B2000610005684FF68F763540056005681543EE
:102B300005600FE00D1FC5F34E052844056848F6F3
:102B4000FF763540056005684FF6FF7606EA0226F7
:102B50003543056070BD4163704781637047C16351
:102B60007047016470470A460021018B4FF68F734E
:102B700019401143018370470A460021018B48F632
:102B8000FF7319404FF6FF7303EA022319430183D1
:102B900070470A460021818B4FF68F73194011430D
:102BA000818370470A460021818B48F6FF731940E4
:102BB0004FF6FF7303EA02231943818370470A46E5
:102BC0000021018B4FF6F7731940114301837047C1
:102BD0000A460021018B4FF2FF7319404FF6FF7335
:102BE00003EA02231943018370470A460021818BBF
:102BF0004FF6F77319401143818370470A4600214D
:102C0000818B4FF2FF7319404FF6FF7303EA0223E3
:102C10001943818370470A460021018B4FF6FB73ED
:102C200019401143018370470A460021018B4FF67A
:102C3000FF3319404FF6FF7303EA02231943018360
:102C400070470A460021818B4FF6FB7319401143F0
:102C5000818370470A460021818B4FF6FF3319406C
:102C60004FF6FF7303EA02231943818370470A4634
:102C70000021018B4FF67F73194011430183704788
:102C80000A460021018BC1F30E014FF6FF7303EAE0
:102C900002231943018370470A460021818B4FF6B6
:102CA0007F7319401143818370470A460021818B4D
:102CB000C1F30E014FF6FF7303EA02231943818328
:102CC00070470A460021018C4FF6FD7319401143ED
:102CD000018470470A460021018C4FF6F7731940B2
:102CE0001143018470470A460021018C4FF6DF73BF
:102CF00019404FF6FF7303EA02131943018470472A
:102D00000A460021018C4FF67F7319404FF6FF737E
:102D100003EA02131943018470470A460021018C1B
:102D20004FF6FF5319404FF6FF7303EA022319438E
:102D3000018470470A460021018C4FF2FF7319404D
:102D40004FF6FF7303EA02231943018470470A46D2
:102D50000021018C4DF6FF7319404FF6FF7303EA13
:102D6000023319430184704730B5002301248C409D
:102D7000A3B2048C9C430484048C02FA01F5ADB226
:102D80002C43048430BD30B5002304248C40A3B20E
:102D9000048C9C430484048C02FA01F5ADB22C43EC
:102DA000048430BD828B4FF2FF331A408283828BC2
:102DB0004FF6FF7303EA01231A4382837047F0B58D
:102DC0000C461546002100220026078C4EF6FF7C9B
:102DD00007EA0C070784818B028C4FF6FF7707EA1E
:102DE000043640F6FF4739404FF6FF7707EA0527DC
:102DF00039434FF6FF7707EA0337394345F6FF7744
:102E00003A4046F480573A4381830284F0BD828B76
:102E10004FF6F3731A408283828B0A438283704792
:102E2000F0B50C461546002100220026078C4FF60F
:102E3000FF6C07EA0C070784818B028C4FF6FF7743
:102E400007EA04264FF60C7739404FF6FF7707EA7A
:102E500003172F4339434FF2FF573A4046F4807728
:102E60003A4381830284F0BD028B4FF2FF331A4054
:102E70000283028B4FF6FF7303EA01231A43028396
:102E80007047F0B50C461546002100220026078C3D
:102E90004FF6EF7C07EA0C070784018B028C4FF694
:102EA000FF7707EA041640F6FF4739404FF6FF77F1
:102EB00007EA033739434FF6FF7703E0000001408C
:102EC0000004014007EA052739434FF65F773A408F
:102ED00046F010073A4301830284F0BD028B4FF69F
:102EE000F3731A400283028B0A4302837047F0B5E2
:102EF0000C46154600210022068C4FF6FE773E4018
:102F00000684018B028C4FF60C7631407E1C06EA5B
:102F100003162E4331434FF6F576324044F0010656
:102F2000324301830284F0BD70B505460C4620880B
:102F300050B92389A28861882846FFF7D8FFE18825
:102F40002846FFF7CBFF25E0208804280AD12389F3
:102F5000A28861882846FFF794FFE1882846FFF79A
:102F600083FF17E0208808280AD12389A288618876
:102F70002846FFF755FFE1882846FFF748FF09E09C
:102F80002389A28861882846FFF719FFE18828462F
:102F9000FFF708FF70BD0021018041800121818081
:102FA0000021C180018170472DE9F04105460C46A2
:102FB00000260127608808B9022600E00026A088C4
:102FC000012801D1022700E001272088A0B9238928
:102FD000A28861882846FFF78AFFE1882846FFF724
:102FE0007DFF23893A4631462846FFF74AFFE188AC
:102FF0002846FFF739FF13E02389A2886188284615
:10300000FFF73FFFE1882846FFF72EFF23893A4666
:1030100031462846FFF76BFFE1882846FFF75EFF41
:10302000BDE8F0810146486B70470146886B7047E8
:103030000146C86B70470146086C70470A884B8888
:103040001A438B881A43CB881A430B891A434B893E
:103050001A438B891A43A0F844207047002101804D
:1030600041808180C180018141818181704731B17E
:10307000B0F8442042F40042A0F8442005E0B0F843
:103080004420C2F30E02A0F84420704721B1828888
:1030900042F00402828004E082884FF6FB731A40FB
:1030A0008280704721B1828842F00102828004E070
:1030B00082884FF6FE731A40828070471AB1838966
:1030C0000B43838102E083898B4383817047818234
:1030D000704702460020138A0B400BB1012000E02C
:1030E00000207047CA430282704730B50246002074
:1030F00000230024158A05EA0103958905EA0104E5
:1031000013B10CB1012000E0002030BDCA4302829F
:10311000704741EA0203A0F8483070471AB183892A
:103120000B43838102E083898B438381704721B104
:10313000828842F00802828004E082884FF6F773AA
:103140001A408280704701894FF6F8721140018160
:1031500070470A46002101894FF68F7319401143C9
:103160000181704730B504460D4629462046FFF7D9
:10317000F0FF208940F00700208130BD2DE9F041AB
:1031800004460D4616461F46602D06D13B460122D9
:1031900031462046FFF775FE05E03B4601223146E9
:1031A0002046FFF7A4FE29462046FFF7D2FF2089DC
:1031B00040F007002081BDE8F08130B50C460021C9
:1031C0000189C9B24FF6FF7505EA0325154325436A
:1031D0002943018130BD2DE9F04105460E461746D1
:1031E0009846002443463A4631462846FFF7E5FF15
:1031F0002C894FF6F870044044F007044FF68F70A6
:10320000044044F070042C81BDE8F081F0B5044620
:103210000D4616461F463B46324629462046FFF7D6
:10322000CCFF208940F480402081F0BD82884FF699
:103230008F731A40828082880A4382807047028995
:103240004FF6F8731A40028102890A4302817047DF
:1032500002894FF67F731A40028102890A43028174
:103260007047F0B50C4615461E460021002200238B
:103270000189028B038C4FF6F877394021434FF6D2
:10328000FC473A4040F201173A434FF6DD773B40A6
:103290004FF6FF7707EA06172F433B43018102836E
:1032A0000384F0BD21B1828842F08002828004E074
:1032B00082884FF67F731A4082807047A0F85010C2
:1032C0007047000010B50446F748844208D1012138
:1032D0001020FEF7F9FE00211020FEF7F5FE3EE07B
:1032E000F248844209D101214804FEF7DCFE0021A6
:1032F0004FF40030FEF7D7FE31E0ED48844209D1AB
:1033000001218804FEF7CFFE00214FF48020FEF754
:10331000CAFE24E0E748844209D10121C804FEF72F
:10332000C2FE00214FF40020FEF7BDFE17E0E24888
:10333000844209D101210805FEF7B5FE00214FF4B2
:103340008010FEF7B0FE0AE0DC48844207D101217C
:103350002020FEF7B9FE00212020FEF7B5FE10BDAB
:103360002DE9FF4705460E460024A14600BFA046B2
:10337000B08900B100BF2C8A24F44054F088044383
:103380002C82AC8941F20C608443B08831890843B7
:10339000718908430443AC81AC8A24F44074B08939
:1033A0000443AC826846FEF74EFDBF48854202D01A
:1033B000C248854202D1DDF80C9001E0DDF80890AA
:1033C000A88900F4004040B109EBC90000EB0910E6
:1033D00031684900B0FBF1F707E009EBC90000EBE9
:1033E000091031688900B0FBF1F76420B7FBF0F0F9
:1033F00004012009642101FB1078A88900F4004031
:1034000040B1322000EBC800B0FBF1F000F0070043
:10341000044308E0322000EB08106421B0FBF1F017
:1034200000F00F0004432C81BDE8FF874FF41651D4
:10343000016000218180C18001810C214181002136
:103440008181704710B502460020108A20F4706018
:103450000B884C8823438C882343CC882343184310
:10346000108210BD0021018041808180C1807047A1
:1034700021B1828942F40052828104E082894DF6B2
:10348000FF731A4082817047028B02F47F420283ED
:10349000028B0A430283704721B1828942F40042C1
:1034A000828103E08289C2F30E028281704721B1DA
:1034B000828A42F40062828204E0828A4FF2FF73C1
:1034C0001A4082827047C1F3080282807047014629
:1034D0008888C0F308007047028A4FF6F0731A40DC
:1034E0000282028A0A430282704721B1828942F035
:1034F0000202828104E082894FF6FD731A408281C4
:10350000704782894FF2FF731A40828182890A4391
:1035100082817047028A4FF6DF731A400282028A64
:103520000A430282704721B1028A42F48042028239
:1035300004E0028A4BF6FF731A40028270478189C9
:1035400041F001018181704721B1828A42F0080275
:10355000828204E0828A4FF6F7731A4082827047B3
:10356000028BD2B20283028B42EA012202837047AD
:1035700021B1828A42F02002828204E0828A4FF6E0
:10358000DF731A408282704721B1828A42F01002B2
:10359000828204E0828A4FF6EF731A40828270477B
:1035A000828A4FF6FB731A408282828A0A438282A1
:1035B000704721B1828A42F00202828204E0828A4C
:1035C0004FF6FD731A40828270471AB1838A0B430B
:1035D000838202E0838A8B4383827047F0B503467F
:1035E000002400260025002040F66A17B94200D1C9
:1035F00000BF1846C1F3421401F01F06012707FA65
:1036000006F5012C01D10C3004E0022C01D1103060
:1036100000E014301AB107682F43076002E0076822
:10362000AF430760F0BD02460020B1F5007F00D136
:1036300000BF13880B400BB1012000E00020704751
:1036400001F40072B2F5007F00D100BFCA430280CE
:10365000704770B50246002400230025002040F684
:103660006A16B14200D100BFC1F3421501F01F0339
:10367000012606FA03F3012D02D19689334006E0B4
:10368000022D02D1168A334001E0968A33400C1293
:10369000012606FA04F41688344013B10CB1012057
:1036A00000E0002070BD0000001001400044004018
:1036B00000480040004C0040005000400014014011
:1036C00010B50022002340F66A14A14200D100BFC9
:1036D0000A1201249440A3B2DC43048010BD000010
:1036E0000CB50020019000906B48006840F48030D9
:1036F0006949086000BF6848006800F40030009025
:103700000198401C0190009818B90198B0F5A06F7D
:10371000F1D16148006800F4003010B10120009040
:1037200001E0002000900098012838D15A48083064
:1037300000685949083108600846006840F40040B4
:1037400008600846006840F4A05008605348091F0C
:103750000860081F006840F08070091F086000BF03
:103760004D48006800F000700028F9D040F2037066
:103770004B49086048480830006820F0030046497B
:10378000083108600846006840F00200086000BF89
:1037900041480830006800F00C000828F8D10CBD42
:1037A00010B53D48006840F001003B49086000202A
:1037B000394908310860384800683A4908403649B4
:1037C00008603948091D0860081F006820F480203F
:1037D000091F0860002030490C310860FFF780FFA6
:1037E0004FF000603149086010BD70B50020002224
:1037F000022300240221284D08352D6805F00C0015
:1038000020B1042806D0082834D107E0284D294EDD
:10381000356033E0284D274E35602FE01E4D2D1DBD
:103820002D68C5F380541C4D2D1D2D6805F03F01FA
:1038300054B1214DB5FBF1F5174E361D3668C6F370
:10384000881605FB06F209E0194DB5FBF1F5124E9D
:10385000361D3668C6F3881605FB06F20E4D2D1D83
:103860002D68C5F301456D1C6B00B2FBF3F5114EDD
:10387000356003E00E4D0F4E356000BF00BF064DB2
:1038800008352D68C5F303150C4E705D094D2D6884
:10389000C540084E356070BD00380240193C4005F7
:1038A000003C0240FFFFF6FE1030002408ED00E06F
:1038B0000024F4004800002040787D014C000020E6
:1038C0000648804706480047FEE7FEE7FEE7FEE7BA
:1038D000FEE7FEE7FEE7FEE7FEE7FEE7A1370008AA
:1038E0008501000870B503460C4603E014F8015B3F
:1038F00003F8015B1500A2F10102F7D170BD30B5EC
:10390000034601E003F8011B1400A2F10102F9D102
:1039100030BD10B504467A4951F824104A0079495F
:1039200051F824000021FFF7EAFF774951F82420DD
:103930007449083951F824000021FFF7E0FF012104
:1039400070480830015510BD10B501460023002213
:1039500007E06C4850F8210030F8120000B15B1C01
:10396000521C674850F821009042F2D86420584316
:10397000634C54F82140B0FBF4F0C0B210BD2DE907
:10398000F04704460F460025A9465E480830005D12
:1039900020B95C4810380168204688471FB94FF0AD
:1039A000FF30BDE8F087594850F82400B7FBF0F627
:1039B000564850F82400B7FBF0F100FB117000B13D
:1039C000761C4F4850F82400451E20E04D4850F822
:1039D000240030F8150010B909F1010901E04FF099
:1039E0000009B14512D14FF0000808E0454850F8F1
:1039F000240005EB080220F8126008F10108B04528
:103A0000F4D3424850F824006843CAE76D1E002DE5
:103A1000DCDA4FF0FF30C4E72DE9F04104460E46F2
:103A200038480830005D38B93648103801682046FB
:103A300088470120BDE8F081334850F82400B042A7
:103A400017D9324850F82400B6FBF0F12D4850F851
:103A5000240030F81120002507E00023294850F801
:103A600024004F1920F817306D1C9542F5DB00201B
:103A7000E0E70220DEE770B505460C4604B970BDEC
:103A80002048083850F82500261A31462846FFF706
:103A9000C3FF00BFF3E770B504460E46314620462B
:103AA000FFF76DFF0546681C08B9002070BD15487A
:103AB000083850F824002844F8E72DE9F04104467E
:103AC0000F46164631462046FFF759FF0546681C4B
:103AD00010B90020BDE8F0810A49083951F82410D6
:103AE000481932463946FFF7FDFE39462046FFF7B2
:103AF000C2FF0448083850F824002844EAE70000D0
:103B00002C9502086C0000203C95020834950208B0
:103B1000EFF3108072B6704780F3108870471D482D
:103B20004FF0FF010170002080F309881A4801213D
:103B300001701A484FF08051016062B6FEE71748E5
:103B40004FF080510160704714484FF08051016080
:103B5000704772B6EFF3098028B1203880E8F00F83
:103B60000F490968086000B50E4880475DF804EB0E
:103B70000D480E490A78027009480D490A6802602A
:103B8000106890E8F00F203080F309884EF0040EA2
:103B900062B6704722ED00E09E00002004ED00E0D8
:103BA000A4000020613C0008930000209400002045
:103BB000AC000020704770477047704770477047EF
:103BC000704770B504461046001D4FF08076051F03
:103BD00028462E60051F28462C60354E051F2846B6
:103BE0002E604FF01236051F28462E604FF0033628
:103BF000051F28462E604FF00236051F28462E600E
:103C00007610051F28462E60051F284629604FF0B4
:103C10001136051F28462E604FF01036051F284626
:103C20002E604FF00936051F28462E604FF00836EB
:103C3000051F28462E604FF00736051F28462E60C8
:103C40004FF00636051F28462E604FF00536051F3B
:103C500028462E604FF00436051F28462E6070BDA2
:103C60007047704710B5FFF753FF044611480078BE
:103C7000401C104908702046FFF74EFF00F0B9FCC9
:103C800000F0BDFB10BD411E4FF0E0225161FF214D
:103C9000094A11704FF0E021096941F005014FF028
:103CA000E02211611146096941F00201116170477A
:103CB000AF6800089100002023ED00E001460020DD
:103CC00002E0491C421CD0B20A78002AF9D17047A0
:103CD0002DE9F04105460E4614460027FA480078C3
:103CE00020B1112020700020BDE8F0812878012843
:103CF00008D0022807D0032802D0042804D100E00D
:103D000000BF00BF00BF03E0012020700020EBE7F0
:103D100000BFFFF7FDFE0746686930603068FFF7B7
:103D2000CDFF80463846FFF7F7FE00202070404662
:103D3000DAE72DE9F04105460E4614460027E24831
:103D4000007818B112202070BDE8F0812878012891
:103D500008D0022807D0032802D0042804D100E0AC
:103D600000BF00BF00BF02E001202070ECE700BFF1
:103D7000FFF7CEFE07466E613846FFF7CDFE002006
:103D8000207000BFE0E7F0B5024612F8384F957892
:103D90005678383A0B4618680FE000F10B073F5D84
:103DA000B74300F10B0C0CF8047067463F5D17B980
:103DB000877AAF4387721B1D18680028EDD1F0BDCC
:103DC000C249C34A1278885CC249095CBF4A515C47
:103DD00001EBC001C04A1170704710B50024FFF715
:103DE00097FE0446B8480078F8B9BC480078E0B9B6
:103DF000FFF7E6FFBA48B849097850F82100B949F9
:103E00000860B5480078B849097888420DD0B548AF
:103E10000068C06B401CB3490968C863B3480068B8
:103E2000401CB2490860FFF78AFE2046FFF774FE87
:103E300010BD70B501460024AD4D2D68EC61AC4C51
:103E4000246821620B4618681BE0A94C246894F88A
:103E5000385000F10B04645DA54D2D6895F839507C
:103E60002C43A34D2D6895F8386000F10B05AC5537
:103E7000847A9F4D2D6895F83A502C4384721B1D0F
:103E800018680028E1D19A4C246894F83820914CA5
:103E9000A45C974D2D6895F83950AC438D4DAC54CA
:103EA0002C46A45C44B9924C246894F83A50884C4F
:103EB0002478AC43864D2C7070BD2DE9FF4F83B044
:103EC00081460E461546DDF84080002000903060A7
:103ED000CA46DAF8004018E02078062807D2DFE862
:103EE00000F00604050307080AE009E008E000BF47
:103EF00000BF012088F80000002007B0BDE8F08F67
:103F000000BF0AF1040ADAF80040002CE4D16E4840
:103F1000007820B1022088F800000020EDE76F480B
:103F2000007820B10D2088F800000020E5E7FFF7B9
:103F3000EFFD00900020029083460190CA46DAF817
:103F400000405DE02078062849D2DFE800F04817FD
:103F50002A03494A208960B12089401E208110C669
:103F600001200290002001C50BF101001FFA80FB27
:103F700003E0019840F0010001903CE0606858B116
:103F8000606801C50020606010C6012002900BF13E
:103F900001001FFA80FB03E0019840F0020001904D
:103FA00029E06768F88AA8B13969081D386108688E
:103FB00001C5B9683869884201D178683861F88AE2
:103FC000401EF88210C6012002900BF101001FFA7A
:103FD00080FB03E0019840F0040001900BE000BF7B
:103FE00000BF0098FFF798FD00203060012088F89E
:103FF0000000584681E700BF0AF1040ADAF80040E1
:10400000002C9FD10298012809D10020306000982F
:10401000FFF782FD002088F8000058466DE734481D
:10402000006890F83400019941F08001084330495C
:10403000096881F8340000202D49096881F83500AD
:104040002B490698096808634846FFF7F2FE009876
:10405000FFF762FDFFF7C1FEFFF75AFD009024480D
:10406000006890F8350020B101281BD0022818D133
:1040700000E000BF1E480068C4693CB110C60020C3
:1040800030600BF101001FFA80FB09E001201849A4
:10409000096881F83500494615480068FFF773FE46
:1040A00006E000BF494612480068FFF76CFE00BFFB
:1040B00000BF0F48006890F83500D8B1012842D001
:1040C00002283FD138E0000091000020449502080A
:1040D000950000209600002094000020920000200F
:1040E00040F60020AC000020930000207800002063
:1040F000A4000020207806280DD2DFE800F00C068E
:1041000007030D0E002001C511E000BFF74800684D
:10411000406A01C50BE000BF00BF0098FFF7FCFC40
:1041200000203060012088F800005846E5E600BF16
:10413000002088F800000CE0002001C50E2088F85F
:10414000000006E000BF002001C50A2088F800003A
:1041500000BF00BF0020E549096881F83400E34949
:10416000096881F83500E1490968C861DF490968D3
:104170000862DE49096848620098FFF7CDFC58469E
:10418000BBE67CB5002514E06946284602F09BFAA0
:10419000064666B9D64850F8254044B1012C06D0F1
:1041A000D4E9020100EB8100A0640198E064681C7E
:1041B000C5B23F2DE8D97CBD002402E0142002F0F6
:1041C0008BFBCC4800780028F8D0CB4800686421ED
:1041D000B0FBF1F0C84908600846006828B9002023
:1041E000C6490870FF2002F0B0FA00BFFFF790FC4C
:1041F0000446C3480068C34908600020C0490860FD
:104200002046FFF789FCBF480068BB490968B0FB3E
:10421000F1F0C0F16400B9490870FFF7D1FCFFF775
:10422000B0FF0A2002F058FBE0E700B587B003209A
:1042300000218022B44BCDE90132CDE903104FF6C5
:10424000FE703E23B14A0090AFF2930002F04DF8A9
:1042500006AAAFA13E2002F0B8F907B000BD0024C5
:1042600000BFFFF755FC0446A5480068401CA44960
:1042700008602046FFF750FCFFF7A0FCF1E700B50F
:1042800087B0032000218022A54BCDE90132CDE982
:1042900003104FF6FF703F23A24A0090AFF2410097
:1042A00002F023F806AAA0A13F2002F08EF907B081
:1042B00000BD04E0002200F8012B4A1E91B2002943
:1042C000F8D1704730B5F0219B48FFF7F2FF9A4BC9
:1042D00003F11805002408E0002018705D6097A025
:1042E000586118331835601C84B2092CF4D30020AF
:1042F0001870586091A058618F489149086030BD8E
:1043000030B54FF4F2618F48FFF7D3FF4FF480715F
:104310007748FFF7CEFF8B4B03F15805002406E0EA
:104320005D6186A0186558335835601CC4B2152CE1
:10433000F6D30020586181A01865002082490860EA
:1043400080488249086030BD0022814B1A70814943
:10435000002004E0002201F8012B421CD0B2082802
:10436000F8D300227C4B1A707C4B1A707C4B1A607D
:104370005E4B1A60704700207A4908607A490870DD
:104380007A4908707A4908707A4908707A49086051
:104390005B4908605B4908605749086055490870E7
:1043A000704710B5FFF706FCFFF7E5FFFFF7CCFFFE
:1043B000FFF7A6FFFFF786FF00F0B2FE01F08BF9D2
:1043C00001F087FCFFF75BFFFFF72FFFFFF7F3FB21
:1043D00010BD10B50024FFF79BFB0446654800782C
:1043E000012808D160480078FF2804D25E48007890
:1043F000401C5D4908702046FFF78EFB10BD10B5CC
:1044000000245C480078012830D1FFF781FB044686
:104410005548007820B154480078401E5249087031
:1044200051480078F8B951480078E0B9FFF7C8FC66
:104430002F484A49097850F82100494908604748FF
:1044400000784549097888420DD045480068C06B1E
:10445000401C43490968C86347480068401C4649F6
:104460000860FFF771FB2046FFF756FB10BD10B543
:10447000002440480078012811D1FFF749FB044689
:104480003948007840B939480078FF2804D23748C5
:104490000078401C354908702046FFF73DFB10BDF1
:1044A00010B500243348007801286AD1FFF730FBAB
:1044B00004462E480078C0B12C480078401E2B4995
:1044C00008700846007860B92748007828B9204667
:1044D000FFF722FBFFF781FC53E02046FFF71CFBB0
:1044E0004FE02046FFF718FB4BE047E0A400002018
:1044F00040F600209000002088000020840000206A
:10450000A00000208C00002040F200203CF400209D
:1045100075432F4F532D4949205374617400000097
:1045200040F400203CF6002075432F4F532D49499D
:104530002049646C6500000000F100203F0000008D
:104540007C00002040F70020B0000020A8000020E0
:104550009500002096000020930000209400002089
:10456000AC000020C000002091000020920000203C
:104570009F0000209E000020780000202046FFF7CA
:10458000CBFA10BD10B5E948007890B9FFF718FCD8
:10459000E7480078E7490870E748E549097850F8A6
:1045A0002100E649086008460068E5490860FFF711
:1045B000B6FA10BD10B50024022002F08DF9FFF705
:1045C000A7FA04460020DF4908602046FFF7A4FA56
:1045D0000A2002F081F9FFF79BFA0446D9480068E7
:1045E000D94908600120D94908702046FFF794FA9C
:1045F00010BD70B50026FFF78BFA0646D448006858
:10460000401CD34908603046FFF786FAC748007857
:10461000012853D1CF48007820B1012804D00228C6
:1046200009D103E001250BE0002509E00125012067
:10463000C849087004E001250020C649087000BF81
:1046400000BF05B970BDC448046833E0FFF760FAE5
:104650000646206B50B3206B401E2063206B28BBA6
:1046600094F8340000F0370040B114F8340F20F013
:104670003700207001206070343C02E0002084F894
:10468000350094F8340000F0080078B93834A07888
:10469000B24909780843B14908702078B049085CEC
:1046A0006178084314F83819AD4A505464693046AB
:1046B000FFF732FA94F836003F28C7D100BFC1E7B0
:1046C00040F221107047704710B590F8382001F182
:1046D0000B039B5C90F83940A34301F10B04A354F6
:1046E00023469B5C23B98B7A90F83A40A3438B72A4
:1046F00010BD2DE9F04F05460F4690469946A87A21
:1047000098490E5C05F10B00805D11F800B00BEBD1
:10471000C60000F0FF0A884850F82A4000202434E0
:10472000E0602760207C20EA0800207484F8119063
:10473000207C243C00F0080068B994F83A008749CE
:1047400009780843854908708548805D94F83910D8
:1047500008438349885529462046FFF7B5FF206A5C
:1047600020B12046216AFFF70EFBE5615046BDE807
:10477000F08F10B5724A1268D061714A126892F8CF
:10478000383000F10B02D25C6D4B1B6893F8393066
:104790001A436B4B1B6893F8384000F10B031A5512
:1047A000827A674B1B6893F83A301A438272644AE4
:1047B000126892F838106A4A525C614B1B6893F891
:1047C00039309A43664B5A541A46525C42B95C4A95
:1047D000126892F83A30614A12789A435F4B1A7025
:1047E00010BD0023837200F10B01002204E00023BE
:1047F00001F8013B531CDAB2082AF8D3704705E0F0
:1048000011F8013B00F8013B531E9AB2002AF7D180
:1048100070472DE9F84F05460F4690469946DDE969
:104820000AAB00200090FFF773F900904E4804682F
:10483000002C76D01C3454F8080C4B4908600098C2
:10484000FFF76AF944F81C7CA57600202076607694
:10485000606144F818BC44F810AC44F8148C0C980F
:1048600024F80C0C24F80A9C0020E077E81020774C
:1048700005F00700E076217F01208840A077E17EE7
:10488000012088406077002020606060E060A060C8
:104890002062A0626062E0622063AFF26030606319
:1048A0001C3C002606E0002104F1540040F82610CC
:1048B000701CC6B2002EF6D02046FFF7D2F9204673
:1048C000FFF77AF9FFF724F900901B4840F82540DC
:1048D0002148006860610020A0611F48006810B195
:1048E0001D48006884611C4804603834A0781B4966
:1048F000097808431949087020781949085C6178DB
:10490000084314F83819164A505418480078401CC7
:10491000164908700098FFF7FFF80020BDE8F88FEF
:10492000FFE70098FFF7F8F84220F7E79E00002025
:10493000940000209300002040F60020AC000020EE
:10494000A4000020A000002088000020900000208B
:10495000C0000020B4000020B0000020950000201E
:104960009600002044950208A80000209F00002027
:104970002DE9F05F04460F4691461E464FF0000BAE
:104980002078052804D0012030700020BDE8F09F79
:1049900009F0800ABAF1000F04D029F080094FF025
:1049A000010801E04FF0000800203070FFF7B0F878
:1049B0008346B9F1000F2CD0B9F1010F3BD0B9F10A
:1049C000020F03D0B9F1030F46D111E0208900EAAC
:1049D0000705BD4206D1B8F1010F05D12089A843D2
:1049E000208101E0702030705846FFF795F83AE0DA
:1049F000208900EA070535B1B8F1010F05D12089FA
:104A0000A843208101E0702030705846FFF784F8F9
:104A100029E0208927EA0005BD4206D1B8F1010F3F
:104A200005D120892843208101E07020307058464C
:104A3000FFF772F817E0208927EA000535B1B8F1D1
:104A4000010F05D120892843208101E070203070BA
:104A50005846FFF761F806E05846FFF75DF8002575
:104A60006F20307000BF00BF28468FE72DE9F0416E
:104A700006460D460027FA48007820B1102028701D
:104A80000020BDE8F081FFF743F80746F5480468C9
:104A900084B100684068F3490860052020702681D1
:104AA00000206060F0A0E0603846FFF735F8002095
:104AB000287004E03846FFF72FF87220287020464F
:104AC000DFE730B501464A6808682AB9CC686060FB
:104AD00028B10025456002E0106000B142608B689B
:104AE00000259D6230BDF0B506460F46B468002033
:104AF0002C3460602780207A20F020002072002073
:104B00006072207A2C3C88B93834A078D74909786B
:104B10000843D64908702078D549085C6178084375
:104B200014F83819D24A5054012500E000253046C7
:104B3000FFF7C7FF2846F0BD2DE9F0470446894638
:104B400015464FF0000AC648007820B10F202870A3
:104B50002046BDE8F0872078052803D00120287082
:104B60002046F6E7FEF7D4FF8246606808B10127C9
:104B700000E00027B9F1000F03D0B9F1010F3CD1DB
:104B800019E08FB9B8A0E06000202070B548006837
:104B9000606000202081B34804605046FEF7BCFFEF
:104BA00000202870002605E05046FEF7B5FF49209A
:104BB0002870264628E0D4F8048005E0002140460D
:104BC000FFF791FFD8F80080B8F1000FF6D1A6A04A
:104BD000E06000202070A348006860600020208111
:104BE000A04804605046FEF797FF012F01D1FFF760
:104BF000F4F800202870002606E05046FEF78CFFEF
:104C000007202870264600BF00BF3046A1E72DE9E7
:104C1000F04105460E46144600279148007820B121
:104C2000112020700020BDE8F081FEF771FF0746DB
:104C30002878052806D03846FEF76EFF0120207040
:104C40000020F0E7E86830603068FFF737F880460A
:104C50003846FEF761FF002020704046E3E72DE96B
:104C6000F04105460E46144600277D48007818B1ED
:104C700012202070BDE8F081FEF74AFF0746287831
:104C8000052805D03846FEF747FF01202070F1E7E0
:104C9000EE603846FEF740FF0020207000BFE9E7D5
:104CA000F0B51446059E734F3F6897F8347047F08F
:104CB0002007DFF8C0C1DCF800C08CF83470002792
:104CC000DFF8B0C1DCF800C08CF83570694F3F6880
:104CD0003E63684F3F68B9620C828B74654F3F68D2
:104CE0008F6047680F6000274F60C860456805B156
:104CF000696041605F4F3F6897F838205C4FBF5C48
:104D0000DFF870C1DCF800C09CF839C027EA0C0756
:104D1000DFF85CC10CF802706746BF5C5FB9554FA5
:104D20003F6897F83AC0514F3F7827EA0C07DFF801
:104D30003CC18CF80070F0BD2DE9F04F89B00546FC
:104D40000F4691469A46129E0020029044480078F1
:104D500028B102203070002009B0BDE8F08F46482D
:104D6000007818B10D2030700020F5E7287805286C
:104D700003D0012030700020EEE709F0800BBBF17A
:104D8000000F04D029F080094FF0010801E04FF036
:104D90000008FEF7BDFE0290B9F1000F4AD0B9F14C
:104DA000010F78D0B9F1020F03D0B9F1030F71D11F
:104DB00020E0288900EA0704BC420FD1B8F1010FB6
:104DC00002D12889A04328812A4800688485029856
:104DD000FEF7A2FE002030702046BDE74B463A4663
:104DE00004A92846CDF800A0FFF75AFF0298FEF765
:104DF00093FE78E0288900EA07047CB1B8F1010F3E
:104E000002D12889A04328811A4800688485029825
:104E1000FEF782FE0020307020469DE74B463A4662
:104E200004A92846CDF800A0FFF73AFF0298FEF744
:104E300073FE58E0288927EA0004BC421ED1B8F16D
:104E4000010F02D12889204328810A4800688485FF
:104E50000298FEF761FE0020307020467CE71AE0E1
:104E600091000020800000203F00000095000020FD
:104E700096000020A4000020920000204B463A46F5
:104E800004A92846CDF800A0FFF70AFF0298FEF714
:104E900043FE28E01FE0288927EA00047CB1B8F12E
:104EA000010F02D1288920432881AD4800688485FC
:104EB0000298FEF731FE0020307020464CE74B464A
:104EC0003A4604A92846CDF800A0FFF7E9FE02986B
:104ED000FEF722FE07E00298FEF71EFE00246F2078
:104EE0003070204638E700BFFEF777FFFEF710FE70
:104EF00002909B48006890F8350020B398480068FD
:104F000090F83500039000209549096881F8350034
:104F100004A8FFF7D6FD00209149096881F8340004
:104F20000298FEF7F9FD00240398012805D0022815
:104F300002D10E20307003E000BF0A20307000BFA5
:104F400000BF204608E786480068848DB8F1010F4D
:104F50001ED1B9F1000F0ED0B9F1010F0CD0B9F18B
:104F6000020F03D0B9F1030F0AD100E000BF288976
:104F7000A04328810BE000BF28892043288106E058
:104F80000298FEF7C9FD6F2030700020E4E600BFF4
:104F90000298FEF7C1FD002030702046DCE670B5B7
:104FA0000025FEF7B5FD05466D480068848D28464E
:104FB000FEF7B2FD204670BD2DE9FC5F0446894630
:104FC00092461E46002000902078052804D001203B
:104FD00030700020BDE8FC9FFEF79AFD0090BAF10A
:104FE000000F03D0BAF1010F0AD104E0208920EAB2
:104FF000090020810BE0208940EA0900208106E0B9
:105000000098FEF789FD712030700020E2E700BFB4
:105010004FF0000B656855E0A87C40B3012838D0FC
:10502000022802D0032844D111E02089298A00EA0D
:105030000107288AB84209D139462846FFF753FDAF
:105040008046B8F1010F01D14FF0010B38E0208903
:10505000298A00EA01074FB139462846FFF743FD88
:105060008046B8F1010F01D14FF0010B28E0288AEA
:10507000218920EA0107288AB84209D13946284601
:10508000FFF731FD8046B8F1010F01D14FF0010B60
:1050900016E0288A218920EA01074FB139462846BF
:1050A000FFF721FD8046B8F1010F01D14FF0010B50
:1050B00006E00098FEF730FD6F203070002089E791
:1050C00000BF2D68002DA7D10098FEF725FDBBF18C
:1050D000010F01D1FEF781FEFEF71AFD0090208935
:1050E00001900098FEF718FD00203070019871E7DC
:1050F0002DE9F04104460D4600272078052804D00C
:10510000012028700020BDE8F081FEF701FD074670
:1051100026893846FEF700FD002028703046F2E769
:1051200070B550210F48FFF7C4F80E4C04F110067B
:10513000002509E0002020706660AFF2D420E06016
:1051400010341036681C85B2042DF3D30020207073
:105150006060AFF2EC20E06002480349086070BD77
:10516000A4000020F0F100208000002070B504466B
:1051700000262078012801D0002070BDFEF7C8FC71
:1051800006466568002060603046FEF7C5FC28468C
:10519000F3E770B505460026E848007808B100201E
:1051A00070BDFEF7B5FC0646E5480468006820B10E
:1051B000E34800684068E24908603046FEF7ACFC0E
:1051C0004CB101202070002020816560DDA060616D
:1051D0002046FFF706FB2046E2E72DE9F0470446AC
:1051E000884615464FF000092078012804D0012098
:1051F00028702046BDE8F087D048007818B10F200D
:1052000028702046F6E7FEF783FC8146A07A08B1B5
:10521000012700E00027B8F1000F03D0B8F1010F1B
:105220003AD119E08FB9C7A0606100202070C4484E
:105230000068606000202081C14804604846FEF795
:105240006BFC00202870002605E04846FEF764FC51
:1052500049202870264626E005E000230222194650
:105260002046FFF746FAA07A0028F6D1B5A0606183
:1052700000202070B2480068606000202081B048A3
:1052800004604846FEF748FC012F01D1FEF7A5FD5A
:1052900000202870002606E04846FEF73DFC072067
:1052A0002870264600BF00BF3046A3E72DE9F04135
:1052B00005460F4614464FF000082878012804D010
:1052C000012020700020BDE8F0819C48007818B1D2
:1052D000022020700020F6E79B48007818B10D20CE
:1052E00020700020EFE7FEF713FC80466E6846B1A1
:1052F000002068604046FEF70FFC0020207030461A
:10530000E1E79248006890F8340040F002008F49CD
:10531000096881F8340000208C49096881F835005B
:105320008A48006807632846FFF723FA4046FEF7DD
:10533000F3FBFEF752FDFEF7EBFB80468348006867
:1053400090F8350020B101280DD002280AD105E0DF
:105350007E480068466A002020700DE000260E207E
:10536000207009E000BF294678480068FFF7ACF9D3
:1053700000260A20207000BF00BF00207349096882
:1053800081F834007149096881F835006F4909686E
:10539000C8616E49096808626C49096848624046FC
:1053A000FEF7BAFB30468EE72DE9F04104460F4682
:1053B00015464FF000082078012804D001202870FD
:1053C0000020BDE8F081FEF7A3FB8046A07A20B361
:1053D00000267FB1012F0CD107E002231A460021DD
:1053E0002046FFF786F9701CC6B2A07A0028F4D1D7
:1053F00009E000BF02231A4600212046FFF779F991
:10540000701CC6B200BF00BF4046FEF785FBFEF72A
:10541000E4FC0E2028703046D3E74046FEF77CFBC4
:105420000020287000BFCCE770B504460D4600266A
:105430002078012801D0012070BDFEF769FB0646E7
:10544000A07A60B10023022229462046FFF751F9D5
:105450003046FEF761FBFEF7C0FC0020ECE7606819
:1054600020B13046FEF758FB1420E5E76560304672
:10547000FEF752FB0020DFE72DE9F04104460E461F
:10548000154600272078012802D00120BDE8F081D0
:10549000FEF73EFB0746A07AE8B105F0010050B1E7
:1054A00005E00023022231462046FFF722F9A07AC8
:1054B0000028F6D105E00023022231462046FFF7FE
:1054C00018F93846FEF728FB05F0040008B9FEF786
:1054D00084FC0020DAE7606820B13846FEF71CFB48
:1054E0001420D3E766603846FEF716FB0020CDE7B0
:1054F0002DE9F04704460D464FF0000920780128B9
:1055000002D00120BDE8F087FEF702FB8146A07AB9
:10551000287304F10B0705F10408002605E017F8CD
:10552000010B08F8010B701CC6B2082EF7D3606897
:1055300028604846FEF7F0FA0020E3E791000020DB
:105540007C0000203F00000092000020A40000200A
:105550002DE9F84F05460F4690469A4600200090E8
:10556000FEF7D6FA00906B480468006820B16948DD
:1055700000684068674908600098FEF7CDFA2CB9CA
:105580005A208AF800000020BDE8F88F2E4605EB6F
:1055900008094FF0000B05E0C6F800904E46C144E4
:1055A0000BF1010B781E5845F6D8002030602560BD
:1055B00065602761E760C4F808808AF8000020462B
:1055C000E2E72DE9F04104460D460027FEF7A0FA78
:1055D0000746206968B16668306860602069401ECF
:1055E00020613846FEF798FA002028703046BDE862
:1055F000F0813846FEF790FA5D2028700020F6E72B
:105600002DE9F04106460C46154600274248007831
:1056100020B1112028700020BDE8F081FEF778FA53
:105620000746706920602068FEF748FB80463846D0
:10563000FEF772FA002028704046EDE72DE9F041B0
:1056400005460E46144600273348007818B112204C
:105650002070BDE8F081FEF75BFA07466E613846C0
:10566000FEF75AFA0020207000BFF2E770B504463A
:105670000D460026FEF74CFA0646D4E90310884290
:1056800004D33046FEF748FA5E2070BD606828609B
:1056900065602069401C20613046FEF73DFA00201D
:1056A000F3E770B505460C460026FEF731FA0646CC
:1056B0002868206068686060A868A060E868E060AA
:1056C000286920613046FEF727FAD4E90301401A21
:1056D0006061002070BD70B578211048FEF7E9FDCB
:1056E0000E4C00250BE0681C00EB40000B4901EB61
:1056F000C00060600AA060611834681C85B2042D87
:10570000F1D30020606006A0606104480149086090
:1057100070BD0000B800002091000020D0FE0020E5
:105720003F0000002DE9F04106460D464FF000080D
:105730003078022804D0012028700020BDE8F081D4
:10574000FEF7E6F980467468E08A78B12169081DA1
:1057500020610F68E08A401EE082A16820698842CB
:1057600001D1606820610020287002E01F202870AD
:1057700000274046FEF7D0F93846DFE72DE9F04133
:1057800006460F464FF00008F748007810B1002099
:10579000BDE8F081FEF7BCF98046F4480468006873
:1057A00020B1F24800684068F04908604046FEF7C2
:1057B000B3F9FCB1FEF7ACF98046ED480568D5B108
:1057C00000680068EA4908604046FEF7A5F96E6087
:1057D00006EB8700A860EE602E61AF820020E882B1
:1057E00002202070002020816560E2A060612046D8
:1057F000FEF7F7FF08E0DD4800686060DB48046002
:105800004046FEF789F900242046C1E72DE9F0471C
:105810000446894615464FF0000A2078022804D035
:10582000012028702046BDE8F087CF48007818B1E5
:105830000F2028702046F6E7FEF76AF98246A07A24
:1058400010B14FF0010801E04FF00008B9F1000F6E
:1058500003D0B9F1010F49D121E0B8F1000F17D100
:10586000C4A060616668C24800683060C0480660D5
:1058700000202070BD480068606000202081BB4887
:1058800004605046FEF748F900202870002705E024
:105890005046FEF741F94920287027462DE005E0E3
:1058A0000023042219462046FEF723FFA07A002891
:1058B000F6D1B0A060616668AD4800683060AC4861
:1058C000066000202070A9480068606000202081E8
:1058D000A64804605046FEF71FF9B8F1010F01D148
:1058E000FEF77BFA00202870002706E05046FEF7FE
:1058F00013F907202870274600BF00BF384692E7FB
:1059000070B505460026FEF703F906466C68606828
:10591000E060606820610020E0823046FEF7FCF81D
:10592000002070BD2DE9F0470746884615464FF028
:1059300000093878022804D0012028700020BDE832
:10594000F0878948007818B1022028700020F6E717
:105950008948007818B10D2028700020EFE7FEF785
:10596000D7F881467C68E08A98B12169081D2061DA
:105970000E68E08A401EE082A1682069884201D159
:10598000606820614846FEF7C7F80020287030465E
:10599000D5E77A48006890F8340040F00400774971
:1059A000096881F8340000207449096881F83500DD
:1059B00072480068C0F830803846FEF7DAFE484684
:1059C000FEF7AAF8FEF709FAFEF7A2F881466B483F
:1059D000006890F8350020B101280DD002280AD1C6
:1059E00005E066480068466A002028700DE0002641
:1059F0000E20287009E000BF394660480068FEF7B5
:105A000063FE00260A20287000BF00BF00205B490B
:105A1000096881F834005949096881F83500574907
:105A20000968C861554909680862544909684862AB
:105A30004846FEF771F8304681E72DE9F04104460B
:105A40000F4615464FF000082078022804D00120A8
:105A500028700020BDE8F081FEF75AF88046A07A51
:105A600020B300267FB1012F0CD107E002230422CE
:105A700000212046FEF73DFE701CC6B2A07A002829
:105A8000F4D109E000BF0223042200212046FEF7E2
:105A900030FE701CC6B200BF00BF4046FEF73CF8A7
:105AA000FEF79BF90E2028703046D3E74046FEF7FC
:105AB00033F80020287000BFCCE72DE9F0410546FF
:105AC0000E4600272878022802D00120BDE8F08188
:105AD000FEF71EF80746A87A60B10023042231467B
